:10000000004000202506000065060000670600008D
:1000100000000000000000000000000000000000E0
:100020000000000000000000000000006906000061
:1000300000000000000000006B0600006D060000DC
:100040006F0600006F0600006F0600006F060000DC
:100050006F060000000000006F0600006F06000041
:100060006F0600006F0600006F0600006F060000BC
:100070006F0600006F0600006F0600006F060000AC
:100080006F0600006F0600006F0600006F0600009C
:100090006F0600006F0600006F0600006F0600008C
:1000A0006F0600006F060000000000000000000066
:1000B0000000000000000000000000000000000040
:1000C00008B5054B054803331B1A062B03D9044B0F
:1000D000002B00D0984708BD700400207004002059
:1000E000000000000648074908B5091A8910CB0F1F
:1000F0005918491003D0044B002B00D0984708BD75
:1001000070040020700400200000000010B5074CAF
:100110002378002B09D1FFF7D3FF054B002B02D02A
:10012000044800E000BF0123237010BD70040020CC
:1001300000000000A40B000008B5094B002B03D001
:100140000848094900E000BF08480368002B02D1B5
:10015000FFF7C8FF08BD064B002BF9D09847F7E71B
:1001600000000000A40B0000740400206C040020B8
:1001700000000000144B002B00D1124B9D46402282
:1001800092029A1A924600218B460F461148124A53
:10019000121A00F0B5FB0D4B002B00D098470C4B0A
:1001A000002B00D098470020002104000D000B48D0
:1001B00000F050FB00F080FB2000290000F0A2F8C6
:1001C00000F050FB0000080000400020000000008C
:1001D00000000000700400208C040020850800004E
:1001E00090B585B000AF041C081C111CBB1D221C5F
:1001F0001A803B1D021C1A80FB1C0A1C1A700D235E
:10020000FB600BE0A023DB050121FA6891400A1C8A
:10021000111C3A4A9950FB680133FB60FB680F2BB5
:10022000F0DD0423BB600CE0A023DA050121BB68EC
:1002300099400B1C191CA123DB00D150BB68013372
:10024000BB60BB680C2BEFDDFB1C1B78012B29D19D
:10025000A023D905BB1D1A88131C9B009A183B1DAF
:100260001B88D218264B5200D35C1A1C01239340E2
:100270001A1CA123DB00CA50A023D905BB1D1A8874
:10028000131C9B009A183B1D1B88D3181C4A5B004B
:10029000D31801331B781A1C012393401A1C174BE7
:1002A000CA5028E0A023D905BB1D1A88131C9B0047
:1002B0009A183B1D1B88D218114B5200D35C1A1C94
:1002C000012393401A1C0D4BCA50A023D905BB1D16
:1002D0001A88131C9B009A183B1D1B88D318084AC8
:1002E0005B00D31801331B781A1C012393401A1C9E
:1002F000A123DB00CA50BD4605B090BD0C0500002F
:100300000000002090B58BB000AF04237B6216E0A4
:10031000A023DA057B6A012199400B1C191CA32339
:10032000DB00D150A023DA057B6A012199400B1C28
:10033000191CA123DB00D1507B6A01337B627B6AED
:100340000F2BE5D9A023DA05ED23DB000121D150E5
:10035000A023DB05474A0121995000233B6200237B
:10036000FB6114E00023BB610BE0BB699AB2FB693F
:100370009BB2101C191C0022FFF732FFBB6901332E
:10038000BB61BB69042BF0DDFB690133FB61FB69D9
:10039000042BE7DD00237B6114E000233B610BE0CD
:1003A0003B699AB27B699BB2101C191C0022FFF7B3
:1003B00017FF3B6901333B613B69042BF0DD7B692F
:1003C00001337B617B69042BE7DDA023DA05A223DF
:1003D000DB00D25880239B02134040D10023FB60F6
:1003E0003AE0FB68181C052100F042F9031CBB60D1
:1003F000BB68214A134004D5013B022252421343F9
:1004000001339C00FB68181C052100F017FA0B1C37
:10041000191CBB680133184A134004D5013B022262
:100420005242134301335B00013B4B43E3187B60B3
:10043000BB689AB27B689BB2101C191C0122FFF7A3
:10044000CFFE0E4B3B623B6A013B3B623B6A002B9B
:10045000F9D1FB680133FB60FB68182BC1DDFA237F
:100460009B003B623B6A013B3B623B6A002BF9D13C
:1004700090E7C0464407000001000080E0930400BC
:1004800080B500AF00F034F8031E06D0124B134ABB
:100490001A60134B802212021A6000F069F8031EE2
:1004A00005D08023DA05C123DB000121D15000F003
:1004B00085F8031E0ED00B4B1B68012B07D0094B90
:1004C000094A1A60C046074B1B68012BFBD1074B3A
:1004D000C0221A60BD4680BD04050040DFFF07C092
:1004E000186C004000EC06407593000014EC0640C8
:1004F00080B500AF1A4B1B68FF221340012B2AD195
:10050000184B1B680F22134025D1174B1B68F02294
:10051000134006D1154B1B68F022134001D1012373
:100520001AE0114B1B68F0221340102B06D10F4B21
:100530001B68F022134001D101230DE00A4B1B6818
:10054000F0221340302B06D1084B1B68F0221340D9
:1005500001D1012300E00023181CBD4680BDC04628
:10056000E00F00F0E40F00F0E80F00F0EC0F00F0F7
:1005700080B500AF0D4B1B68FF221340012B11D13A
:100580000B4B1B680F2213400CD10A4B1B68F02247
:100590001340402B06D1084B1B68F022134001D1B9
:1005A000012300E00023181CBD4680BDE00F00F0D1
:1005B000E40F00F0E80F00F0EC0F00F080B500AFA2
:1005C000144B1B68FF221340012B1ED1124B1B68DA
:1005D0000F22134019D1114B1B68F0221340A02B9E
:1005E00006D10F4B1B68F022134001D101230DE00F
:1005F0000A4B1B68F0221340D02B06D1084B1B6816
:10060000F022134001D1012300E00023181CBD4655
:1006100080BDC046E00F00F0E40F00F0E80F00F0EE
:10062000EC0F00F003210A4802680A4302600948FF
:1006300002680A4302600849084A094B9B1A03DD15
:10064000043BC858D050FBDCFFF71AFFFFF792FDC0
:100650002405004054050040B00B000000000020BD
:1006600070040020FEE7FEE7FEE7FEE7FEE7FEE798
:1006700003460B437FD4002243088B4274D3030903
:100680008B425FD3030A8B4244D3030B8B4228D3A4
:10069000030C8B420DD3FF22090212BA030C8B42CA
:1006A00002D31212090265D0030B8B4219D300E06A
:1006B000090AC30B8B4201D3CB03C01A5241830BEF
:1006C0008B4201D38B03C01A5241430B8B4201D39F
:1006D0004B03C01A5241030B8B4201D30B03C01AC8
:1006E0005241C30A8B4201D3CB02C01A5241830A42
:1006F0008B4201D38B02C01A5241430A8B4201D371
:100700004B02C01A5241030A8B4201D30B02C01A9A
:100710005241CDD2C3098B4201D3CB01C01A524101
:1007200083098B4201D38B01C01A524143098B428A
:1007300001D34B01C01A524103098B4201D30B0173
:10074000C01A5241C3088B4201D3CB00C01A524198
:1007500083088B4201D38B00C01A524143088B425D
:1007600001D34B00C01A5241411A00D201465241F6
:10077000104670475DE0CA0F00D04942031000D315
:100780004042534000229C4603098B422DD3030A6A
:100790008B4212D3FC22890112BA030A8B420CD37A
:1007A000890192118B4208D3890192118B4204D3A3
:1007B00089013AD0921100E08909C3098B4201D323
:1007C000CB01C01A524183098B4201D38B01C01A5D
:1007D000524143098B4201D34B01C01A52410309D4
:1007E0008B4201D30B01C01A5241C3088B4201D383
:1007F000CB00C01A524183088B4201D38B00C01A30
:100800005241D9D243088B4201D34B00C01A524106
:10081000411A00D20146634652415B10104601D393
:100820004042002B00D54942704763465B1000D31D
:10083000404201B5002000F00BF802BD0029F8D0BD
:1008400003B5FFF715FF0EBC4243891A1847C0468F
:100850007047C04608B5011C00220020002300F0AC
:1008600095F808BD10B50021041C00F005F9044BF3
:100870001868C36B002B00D09847201C00F080F94B
:10088000A00B000038B5094B094CE41AA41009D09C
:10089000084AA518AD00ED182B68013C9847043DA7
:1008A000002CF9D100F074F938BDC046680400206E
:1008B0006C040020FFFFFF3F70B50D4E0D4D00246E
:1008C000AD1BAD1005D0A300F35801349847A542E5
:1008D000F9D100F057F9084E084D0024AD1BAD10BA
:1008E00005D0A300F35801349847A542F9D170BD53
:1008F00060040020600400206004002068040020E0
:1009000070B583073FD0541E002A3BD0CEB2031CE3
:10091000032503E0621E002C34D0141C01335A1E40
:1009200016702B42F6D1032C24D9FF250D402A0244
:1009300015432A0415430F2C11D9261C103E3609E5
:10094000013636011A1C9B19156055609560D560FB
:1009500010329342F8D10F221440032C0AD9261FDB
:10096000B6080136B6001A1C9B1920C29342FCD16E
:1009700003221440002C05D0C9B21C191970013390
:10098000A342FBD170BD141C031CCCE7F8B5444650
:100990005F4656464D469B462F4BF0B41C68A42339
:1009A0005B00051CE0580E1C904600284BD04368A5
:1009B0001F2B0DDC5C1C002D21D102339B004460F9
:1009C0001E5000203CBC90469946A246AB46F8BD5E
:1009D000224B002B3CD0C820400000E000BF002884
:1009E00036D0A42200235200A15843600160A050D9
:1009F00040328350043283500124002DDDD09A0010
:100A000091468144424688214F467A50C422520082
:100A10009046804442468739994012688A460A4384
:100A20009446424661461160842249465F46520020
:100A30008F50022DC1D1021C55468D32FF321168F4
:100A40000D431560B9E7201C4D30FF30E050AEE794
:100A500001204042B6E7C046A00B000000000000A5
:100A600008B5034B002B02D00248FFF7F3FE08BD88
:100A70000000000085080000F0B556465F464D4670
:100A80004446F0B40E1C3C4B87B01B6801900393A6
:100A90004933FF330493A422039B52009F58002F35
:100AA0004CD0049B984600239B46C4235B009C4685
:100AB000BC4463460293C6235B009A467C68BA44F2
:100AC000A5007D19013C08D526E06B1DFF331B688E
:100AD000B34204D0043D013C1ED3002EF5D17B6807
:100AE0006A68013BA3423AD05B466B60002AF1D0B2
:100AF0007B68029999460123A34009680591194230
:100B000023D190477B684B45C5D143461B68BB4208
:100B1000C1D1043D013CE0D2184B002B0ED07B68C4
:100B2000002B23D13B68002B24D04246381C136095
:100B300000E000BF43461F68002FB6D107B03CBCA1
:100B400090469946A246AB46F0BD51460968194207
:100B500007D12B1C8433196801989047D2E77C6039
:100B6000C4E72B1C843318689047CBE73B68B84632
:100B70001F1CE1E70023FAE7A00B000000000000C3
:100B8000FEE7C046F8B5C046F8BC08BC9E467047B4
:100B9000F8B5C046F8BC08BC9E467047430000004C
:080BA0003800002000000000F5
:080BA800CCF5FF7F0100000005
:100BB0000D040E070D050E080D060F070F080F098F
:100BC0000F0A0F0B0E050D0C0E060F0C0E040D0B6D
:100BD0000D0A0D090D080D070F060E0A0F040E0968
:100BE0000F050000000000000000000024030020AA
:100BF0008C030020F403002000000000000000002F
:100C000000000000000000000000000000000000E4
:100C10000000000000000000000000009C0B00002D
:100C200000000000000000000000000000000000C4
:100C300000000000000000000000000000000000B4
:100C400000000000000000000000000000000000A4
:100C50000000000000000000000000000000000094
:100C60000000000000000000000000000000000084
:100C70000000000000000000000000000000000074
:100C80000000000000000000000000000000000064
:100C900001000000000000000E33CDAB34126DE601
:100CA000ECDE05000B00000000000000000000006A
:100CB0000000000000000000000000000000000034
:100CC0000000000000000000000000000000000024
:100CD0000000000000000000000000000000000014
:100CE0000000000000000000000000000000000004
:10101000610A0000390100000D010000000000001D
:0400000300000625CE
:00000001FF
